{
  "abi": [
    {
      "inputs": [],
      "stateMutability": "nonpayable",
      "type": "constructor"
    },
    {
      "inputs": [
        {
          "internalType": "address",
          "name": "owner",
          "type": "address"
        }
      ],
      "name": "OwnableInvalidOwner",
      "type": "error"
    },
    {
      "inputs": [
        {
          "internalType": "address",
          "name": "account",
          "type": "address"
        }
      ],
      "name": "OwnableUnauthorizedAccount",
      "type": "error"
    },
    {
      "anonymous": false,
      "inputs": [
        {
          "indexed": false,
          "internalType": "uint256",
          "name": "newCount",
          "type": "uint256"
        }
      ],
      "name": "CountChanged",
      "type": "event"
    },
    {
      "anonymous": false,
      "inputs": [
        {
          "indexed": true,
          "internalType": "address",
          "name": "previousOwner",
          "type": "address"
        },
        {
          "indexed": true,
          "internalType": "address",
          "name": "newOwner",
          "type": "address"
        }
      ],
      "name": "OwnershipTransferred",
      "type": "event"
    },
    {
      "inputs": [],
      "name": "decrement",
      "outputs": [],
      "stateMutability": "nonpayable",
      "type": "function"
    },
    {
      "inputs": [],
      "name": "getCount",
      "outputs": [
        {
          "internalType": "uint256",
          "name": "",
          "type": "uint256"
        }
      ],
      "stateMutability": "view",
      "type": "function"
    },
    {
      "inputs": [],
      "name": "increment",
      "outputs": [],
      "stateMutability": "nonpayable",
      "type": "function"
    },
    {
      "inputs": [],
      "name": "owner",
      "outputs": [
        {
          "internalType": "address",
          "name": "",
          "type": "address"
        }
      ],
      "stateMutability": "view",
      "type": "function"
    },
    {
      "inputs": [],
      "name": "renounceOwnership",
      "outputs": [],
      "stateMutability": "nonpayable",
      "type": "function"
    },
    {
      "inputs": [
        {
          "internalType": "address",
          "name": "newOwner",
          "type": "address"
        }
      ],
      "name": "transferOwnership",
      "outputs": [],
      "stateMutability": "nonpayable",
      "type": "function"
    }
  ],
  "bytecode": {
    "object": "0x608060405234801561001057600080fd5b50338061003757604051631e4fbdf760e01b81526000600482015260240160405180910390fd5b6100408161004b565b50600060015561009b565b600080546001600160a01b038381166001600160a01b0319831681178455604051919092169283917f8be0079c531659141344cd1fd0a4f28419497f9722a3daafe3b4186f6b6457e09190a35050565b6102b2806100aa6000396000f3fe608060405234801561001057600080fd5b50600436106100625760003560e01c80632baeceb714610067578063715018a6146100715780638da5cb5b14610079578063a87d942c14610099578063d09de08a146100aa578063f2fde38b146100b2575b600080fd5b61006f6100c5565b005b61006f61011c565b6000546040516001600160a01b0390911681526020015b60405180910390f35b600154604051908152602001610090565b61006f610130565b61006f6100c036600461020a565b61014a565b6100cd61018d565b60018060008282546100df9190610250565b90915550506001546040519081527f0ef4482aceb854636f33f9cd319f9e1cd6fe3aa2e60523f3583c287b893824459060200160405180910390a1565b61012461018d565b61012e60006101ba565b565b61013861018d565b60018060008282546100df9190610269565b61015261018d565b6001600160a01b03811661018157604051631e4fbdf760e01b8152600060048201526024015b60405180910390fd5b61018a816101ba565b50565b6000546001600160a01b0316331461012e5760405163118cdaa760e01b8152336004820152602401610178565b600080546001600160a01b038381166001600160a01b0319831681178455604051919092169283917f8be0079c531659141344cd1fd0a4f28419497f9722a3daafe3b4186f6b6457e09190a35050565b60006020828403121561021c57600080fd5b81356001600160a01b038116811461023357600080fd5b9392505050565b634e487b7160e01b600052601160045260246000fd5b818103818111156102635761026361023a565b92915050565b808201808211156102635761026361023a56fea2646970667358221220e068256dc0ecd8f899b0a9eea5b9949c239e63b838a9d5b9d116c5eedbb95c9f64736f6c63430008150033",
    "linkReferences": {}
  },
  "methodIdentifiers": {
    "decrement()": "2baeceb7",
    "getCount()": "a87d942c",
    "increment()": "d09de08a",
    "owner()": "8da5cb5b",
    "renounceOwnership()": "715018a6",
    "transferOwnership(address)": "f2fde38b"
  },
  "id": 6
}