{
  "abi": [
    {
      "inputs": [
        {
          "internalType": "address",
          "name": "_WBTC",
          "type": "address"
        },
        {
          "internalType": "address",
          "name": "_USDC",
          "type": "address"
        },
        {
          "internalType": "address",
          "name": "chainlinkPriceFeed",
          "type": "address"
        }
      ],
      "stateMutability": "nonpayable",
      "type": "constructor"
    },
    {
      "inputs": [
        {
          "internalType": "address",
          "name": "target",
          "type": "address"
        }
      ],
      "name": "AddressEmptyCode",
      "type": "error"
    },
    {
      "inputs": [
        {
          "internalType": "address",
          "name": "account",
          "type": "address"
        }
      ],
      "name": "AddressInsufficientBalance",
      "type": "error"
    },
    {
      "inputs": [],
      "name": "FailedInnerCall",
      "type": "error"
    },
    {
      "inputs": [],
      "name": "NotEnoughCollateral",
      "type": "error"
    },
    {
      "inputs": [],
      "name": "NotEnoughLiquidity",
      "type": "error"
    },
    {
      "inputs": [],
      "name": "PositionOpen",
      "type": "error"
    },
    {
      "inputs": [
        {
          "internalType": "address",
          "name": "token",
          "type": "address"
        }
      ],
      "name": "SafeERC20FailedOperation",
      "type": "error"
    },
    {
      "inputs": [],
      "name": "ZeroAmount",
      "type": "error"
    },
    {
      "anonymous": false,
      "inputs": [
        {
          "indexed": true,
          "internalType": "address",
          "name": "user",
          "type": "address"
        },
        {
          "indexed": false,
          "internalType": "uint256",
          "name": "additionalCollateralAmountUsdc",
          "type": "uint256"
        }
      ],
      "name": "CollateralIncreased",
      "type": "event"
    },
    {
      "anonymous": false,
      "inputs": [
        {
          "indexed": true,
          "internalType": "address",
          "name": "user",
          "type": "address"
        },
        {
          "indexed": false,
          "internalType": "uint256",
          "name": "amount",
          "type": "uint256"
        }
      ],
      "name": "LiquidityDeposited",
      "type": "event"
    },
    {
      "anonymous": false,
      "inputs": [
        {
          "indexed": true,
          "internalType": "address",
          "name": "user",
          "type": "address"
        },
        {
          "indexed": false,
          "internalType": "uint256",
          "name": "amount",
          "type": "uint256"
        }
      ],
      "name": "LiquidityWithdrawn",
      "type": "event"
    },
    {
      "anonymous": false,
      "inputs": [
        {
          "indexed": true,
          "internalType": "address",
          "name": "user",
          "type": "address"
        },
        {
          "indexed": false,
          "internalType": "uint256",
          "name": "additionalCollateralAmountUsdc",
          "type": "uint256"
        },
        {
          "indexed": false,
          "internalType": "uint256",
          "name": "newborrowAmountUsdc",
          "type": "uint256"
        },
        {
          "indexed": false,
          "internalType": "uint256",
          "name": "newBorrowAmountWbtc",
          "type": "uint256"
        }
      ],
      "name": "PositionIncreased",
      "type": "event"
    },
    {
      "anonymous": false,
      "inputs": [
        {
          "indexed": true,
          "internalType": "address",
          "name": "user",
          "type": "address"
        },
        {
          "indexed": false,
          "internalType": "bool",
          "name": "positionType",
          "type": "bool"
        },
        {
          "indexed": false,
          "internalType": "uint256",
          "name": "leverage",
          "type": "uint256"
        },
        {
          "indexed": false,
          "internalType": "uint256",
          "name": "collateralAmountUsdc",
          "type": "uint256"
        },
        {
          "indexed": false,
          "internalType": "uint256",
          "name": "borrowAmountUsdc",
          "type": "uint256"
        },
        {
          "indexed": false,
          "internalType": "uint256",
          "name": "borrowAmountWbtc",
          "type": "uint256"
        }
      ],
      "name": "PositionOpened",
      "type": "event"
    },
    {
      "inputs": [],
      "name": "USDC",
      "outputs": [
        {
          "internalType": "contract IERC20",
          "name": "",
          "type": "address"
        }
      ],
      "stateMutability": "view",
      "type": "function"
    },
    {
      "inputs": [],
      "name": "WBTC",
      "outputs": [
        {
          "internalType": "contract IERC20",
          "name": "",
          "type": "address"
        }
      ],
      "stateMutability": "view",
      "type": "function"
    },
    {
      "inputs": [
        {
          "internalType": "uint256",
          "name": "_amount",
          "type": "uint256"
        }
      ],
      "name": "checkLiquidityBorrow",
      "outputs": [],
      "stateMutability": "view",
      "type": "function"
    },
    {
      "inputs": [
        {
          "internalType": "uint256",
          "name": "_amount",
          "type": "uint256"
        }
      ],
      "name": "checkLiquidityWithdraw",
      "outputs": [],
      "stateMutability": "view",
      "type": "function"
    },
    {
      "inputs": [
        {
          "internalType": "uint256",
          "name": "_amount",
          "type": "uint256"
        }
      ],
      "name": "depositLiquidity",
      "outputs": [],
      "stateMutability": "nonpayable",
      "type": "function"
    },
    {
      "inputs": [],
      "name": "getWBTCPrice",
      "outputs": [
        {
          "internalType": "uint256",
          "name": "",
          "type": "uint256"
        }
      ],
      "stateMutability": "view",
      "type": "function"
    },
    {
      "inputs": [
        {
          "internalType": "uint256",
          "name": "_collateralAmountUsdc",
          "type": "uint256"
        }
      ],
      "name": "increaseCollateral",
      "outputs": [],
      "stateMutability": "nonpayable",
      "type": "function"
    },
    {
      "inputs": [
        {
          "internalType": "uint256",
          "name": "_collateralAmountUsdc",
          "type": "uint256"
        }
      ],
      "name": "increasePosition",
      "outputs": [],
      "stateMutability": "nonpayable",
      "type": "function"
    },
    {
      "inputs": [
        {
          "internalType": "bool",
          "name": "_positionType",
          "type": "bool"
        },
        {
          "internalType": "uint256",
          "name": "_leverage",
          "type": "uint256"
        },
        {
          "internalType": "uint256",
          "name": "_collateralAmountUsdc",
          "type": "uint256"
        }
      ],
      "name": "openPosition",
      "outputs": [],
      "stateMutability": "nonpayable",
      "type": "function"
    },
    {
      "inputs": [],
      "name": "totalBorrowed",
      "outputs": [
        {
          "internalType": "uint256",
          "name": "",
          "type": "uint256"
        }
      ],
      "stateMutability": "view",
      "type": "function"
    },
    {
      "inputs": [],
      "name": "totalDeposited",
      "outputs": [
        {
          "internalType": "uint256",
          "name": "",
          "type": "uint256"
        }
      ],
      "stateMutability": "view",
      "type": "function"
    },
    {
      "inputs": [
        {
          "internalType": "address",
          "name": "",
          "type": "address"
        }
      ],
      "name": "userDeposit",
      "outputs": [
        {
          "internalType": "uint256",
          "name": "",
          "type": "uint256"
        }
      ],
      "stateMutability": "view",
      "type": "function"
    },
    {
      "inputs": [
        {
          "internalType": "address",
          "name": "",
          "type": "address"
        }
      ],
      "name": "userPositions",
      "outputs": [
        {
          "internalType": "bool",
          "name": "positionType",
          "type": "bool"
        },
        {
          "internalType": "uint256",
          "name": "leverage",
          "type": "uint256"
        },
        {
          "internalType": "uint256",
          "name": "collateralAmount",
          "type": "uint256"
        },
        {
          "internalType": "uint256",
          "name": "borrowAmountUsdc",
          "type": "uint256"
        },
        {
          "internalType": "uint256",
          "name": "borrowAmountWbtc",
          "type": "uint256"
        }
      ],
      "stateMutability": "view",
      "type": "function"
    },
    {
      "inputs": [
        {
          "internalType": "uint256",
          "name": "_amount",
          "type": "uint256"
        }
      ],
      "name": "withdrawLiquidity",
      "outputs": [],
      "stateMutability": "nonpayable",
      "type": "function"
    }
  ],
  "bytecode": {
    "object": "0x60e060405234801561001057600080fd5b50604051610eee380380610eee83398101604081905261002f91610072565b6001600160a01b0392831660a05290821660c05216608052600060028190556003556100b5565b80516001600160a01b038116811461006d57600080fd5b919050565b60008060006060848603121561008757600080fd5b61009084610056565b925061009e60208501610056565b91506100ac60408501610056565b90509250925092565b60805160a05160c051610de7610107600039600081816102090152818161050f0152818161072c015261090101526000818161014b0152818161033e01526105de015260006109360152610de76000f3fe608060405234801561001057600080fd5b50600436106100ea5760003560e01c806389a302711161008c578063d1260edd11610066578063d1260edd14610251578063e325573114610271578063fa7d826a14610284578063ff50abdc1461028c57600080fd5b806389a3027114610204578063a70bf7fe1461022b578063b8a838341461023e57600080fd5b80634c718d06116100c85780634c718d06146101335780634dede3de14610146578063613cf4201461018557806376d58e1a146101f157600080fd5b80630a861f2a146100ef5780634270710b146101045780634c19386c14610117575b600080fd5b6101026100fd366004610bfc565b610295565b005b610102610112366004610bfc565b610368565b61012060035481565b6040519081526020015b60405180910390f35b610102610141366004610bfc565b6103c1565b61016d7f000000000000000000000000000000000000000000000000000000000000000081565b6040516001600160a01b03909116815260200161012a565b6101c7610193366004610c15565b60016020819052600091825260409091208054918101546002820154600383015460049093015460ff909416939192909185565b6040805195151586526020860194909452928401919091526060830152608082015260a00161012a565b6101026101ff366004610bfc565b61053e565b61016d7f000000000000000000000000000000000000000000000000000000000000000081565b610102610239366004610bfc565b610606565b61010261024c366004610bfc565b6106a2565b61012061025f366004610c15565b60006020819052908152604090205481565b61010261027f366004610c4c565b610754565b610120610931565b61012060025481565b806000036102b657604051631f2a200560e01b815260040160405180910390fd5b6102bf81610606565b33600090815260208190526040812080548392906102de908490610c97565b9250508190555080600260008282546102f79190610c97565b909155505060405181815233907fb1cce8684b4ffa8667b4577654e61ee3480d661ee9c27522ac80e211f6bd4d259060200160405180910390a26103656001600160a01b037f00000000000000000000000000000000000000000000000000000000000000001633836109c1565b50565b6000816003546103789190610caa565b905060008161271060025461038d9190610cbd565b6103979190610cd4565b9050613a988110156103bc57604051634323a55560e01b815260040160405180910390fd5b505050565b806000036103e257604051631f2a200560e01b815260040160405180910390fd5b629896808110156104055760405162d11df360e61b815260040160405180910390fd5b3360009081526001602052604081209061041d610931565b905060008260010154846104319190610cbd565b9050600082610448670de0b6b3a764000087610cbd565b6104529190610cd4565b905061046061271082610cd4565b5061046a81610368565b8184600301600082825461047e9190610caa565b92505081905550808460040160008282546104999190610caa565b9250508190555080600360008282546104b29190610caa565b90915550506003840154600485015460408051888152602081019390935282015233907f673e472cd732d3288c086ad7d57942b327621ec34ae765dfa0d0069c9fe100649060600160405180910390a26105376001600160a01b037f000000000000000000000000000000000000000000000000000000000000000016333088610a20565b5050505050565b8060000361055f57604051631f2a200560e01b815260040160405180910390fd5b336000908152602081905260408120805483929061057e908490610caa565b9250508190555080600260008282546105979190610caa565b909155505060405181815233907f7ff07ce9a287649537e4b012e45cf012d90228b12e2b56bb03515a6b5436fcdf9060200160405180910390a26103656001600160a01b037f000000000000000000000000000000000000000000000000000000000000000016333084610a20565b60035460025460009061061a908490610c97565b905080158015610628575081155b1561063257505050565b801580156106405750600082115b1561065e57604051634323a55560e01b815260040160405180910390fd5b60008261066d61271084610cbd565b6106779190610cd4565b9050613a9881101561069c57604051634323a55560e01b815260040160405180910390fd5b50505050565b806000036106c357604051631f2a200560e01b815260040160405180910390fd5b33600090815260016020526040812060020180548392906106e5908490610caa565b909155505060405181815233907ffe774a391baf6f98e6e7e8f440eca7282e48993fe8ccf2c0081f13c9d34880d19060200160405180910390a26103656001600160a01b037f000000000000000000000000000000000000000000000000000000000000000016333084610a20565b81158061075f575080155b1561077d57604051631f2a200560e01b815260040160405180910390fd5b33600090815260016020526040902060030154156107ae5760405163381d07a960e01b815260040160405180910390fd5b629896808110156107d15760405162d11df360e61b815260040160405180910390fd5b60006107db610931565b905060006107e98484610cbd565b9050600082610800670de0b6b3a764000084610cbd565b61080a9190610cd4565b905061081e670de0b6b3a764000082610cd4565b506040805160a0810182528715158152602080820188815282840188815260608401878152608085018781523360009081526001958690529687209551865460ff191690151517865592519385019390935551600284015590516003808401919091559051600490920191909155805483929061089c908490610caa565b909155505060408051871515815260208101879052908101859052606081018390526080810182905233907f0e8f4b81343afa64bc4ddcfbf2d80e883e0ddfc6663c400ca09da13d1d28d5889060a00160405180910390a26109296001600160a01b037f000000000000000000000000000000000000000000000000000000000000000016333087610a20565b505050505050565b6000807f00000000000000000000000000000000000000000000000000000000000000006001600160a01b031663feaf968c6040518163ffffffff1660e01b815260040160a060405180830381865afa158015610992573d6000803e3d6000fd5b505050506040513d601f19601f820116820180604052508101906109b69190610d15565b509195945050505050565b6040516001600160a01b038381166024830152604482018390526103bc91859182169063a9059cbb906064015b604051602081830303815290604052915060e01b6020820180516001600160e01b038381831617835250505050610a59565b6040516001600160a01b03848116602483015283811660448301526064820183905261069c9186918216906323b872dd906084016109ee565b6000610a6e6001600160a01b03841683610ac1565b90508051600014158015610a93575080806020019051810190610a919190610d65565b155b156103bc57604051635274afe760e01b81526001600160a01b03841660048201526024015b60405180910390fd5b6060610acf83836000610ad8565b90505b92915050565b606081471015610afd5760405163cd78605960e01b8152306004820152602401610ab8565b600080856001600160a01b03168486604051610b199190610d82565b60006040518083038185875af1925050503d8060008114610b56576040519150601f19603f3d011682016040523d82523d6000602084013e610b5b565b606091505b5091509150610b6b868383610b77565b925050505b9392505050565b606082610b8c57610b8782610bd3565b610b70565b8151158015610ba357506001600160a01b0384163b155b15610bcc57604051639996b31560e01b81526001600160a01b0385166004820152602401610ab8565b5080610b70565b805115610be35780518082602001fd5b604051630a12f52160e11b815260040160405180910390fd5b600060208284031215610c0e57600080fd5b5035919050565b600060208284031215610c2757600080fd5b81356001600160a01b0381168114610b7057600080fd5b801515811461036557600080fd5b600080600060608486031215610c6157600080fd5b8335610c6c81610c3e565b95602085013595506040909401359392505050565b634e487b7160e01b600052601160045260246000fd5b81810381811115610ad257610ad2610c81565b80820180821115610ad257610ad2610c81565b8082028115828204841417610ad257610ad2610c81565b600082610cf157634e487b7160e01b600052601260045260246000fd5b500490565b805169ffffffffffffffffffff81168114610d1057600080fd5b919050565b600080600080600060a08688031215610d2d57600080fd5b610d3686610cf6565b9450602086015193506040860151925060608601519150610d5960808701610cf6565b90509295509295909350565b600060208284031215610d7757600080fd5b8151610b7081610c3e565b6000825160005b81811015610da35760208186018101518583015201610d89565b50600092019182525091905056fea26469706673582212205a23aebfb7a396d6169fad9c3c15dfd0ed5a0faf354f1461ff4496fa7c18b0fe64736f6c63430008150033",
    "linkReferences": {}
  },
  "methodIdentifiers": {
    "USDC()": "89a30271",
    "WBTC()": "4dede3de",
    "checkLiquidityBorrow(uint256)": "4270710b",
    "checkLiquidityWithdraw(uint256)": "a70bf7fe",
    "depositLiquidity(uint256)": "76d58e1a",
    "getWBTCPrice()": "fa7d826a",
    "increaseCollateral(uint256)": "b8a83834",
    "increasePosition(uint256)": "4c718d06",
    "openPosition(bool,uint256,uint256)": "e3255731",
    "totalBorrowed()": "4c19386c",
    "totalDeposited()": "ff50abdc",
    "userDeposit(address)": "d1260edd",
    "userPositions(address)": "613cf420",
    "withdrawLiquidity(uint256)": "0a861f2a"
  },
  "id": 27
}